{
  "contractName": "Contest",
  "abi": [
    {
      "inputs": [],
      "stateMutability": "nonpayable",
      "type": "constructor"
    },
    {
      "inputs": [
        {
          "internalType": "uint256",
          "name": "",
          "type": "uint256"
        }
      ],
      "name": "contestants",
      "outputs": [
        {
          "internalType": "uint256",
          "name": "id",
          "type": "uint256"
        },
        {
          "internalType": "string",
          "name": "name",
          "type": "string"
        },
        {
          "internalType": "uint256",
          "name": "voteCount",
          "type": "uint256"
        },
        {
          "internalType": "string",
          "name": "party",
          "type": "string"
        },
        {
          "internalType": "uint256",
          "name": "age",
          "type": "uint256"
        },
        {
          "internalType": "string",
          "name": "qualification",
          "type": "string"
        }
      ],
      "stateMutability": "view",
      "type": "function",
      "constant": true
    },
    {
      "inputs": [],
      "name": "contestantsCount",
      "outputs": [
        {
          "internalType": "uint256",
          "name": "",
          "type": "uint256"
        }
      ],
      "stateMutability": "view",
      "type": "function",
      "constant": true
    },
    {
      "inputs": [],
      "name": "state",
      "outputs": [
        {
          "internalType": "enum Contest.PHASE",
          "name": "",
          "type": "uint8"
        }
      ],
      "stateMutability": "view",
      "type": "function",
      "constant": true
    },
    {
      "inputs": [
        {
          "internalType": "address",
          "name": "",
          "type": "address"
        }
      ],
      "name": "voters",
      "outputs": [
        {
          "internalType": "bool",
          "name": "hasVoted",
          "type": "bool"
        },
        {
          "internalType": "uint256",
          "name": "vote",
          "type": "uint256"
        },
        {
          "internalType": "bool",
          "name": "isRegistered",
          "type": "bool"
        }
      ],
      "stateMutability": "view",
      "type": "function",
      "constant": true
    },
    {
      "inputs": [
        {
          "internalType": "enum Contest.PHASE",
          "name": "x",
          "type": "uint8"
        }
      ],
      "name": "changeState",
      "outputs": [],
      "stateMutability": "nonpayable",
      "type": "function"
    },
    {
      "inputs": [
        {
          "internalType": "string",
          "name": "_name",
          "type": "string"
        },
        {
          "internalType": "string",
          "name": "_party",
          "type": "string"
        },
        {
          "internalType": "uint256",
          "name": "_age",
          "type": "uint256"
        },
        {
          "internalType": "string",
          "name": "_qualification",
          "type": "string"
        }
      ],
      "name": "addContestant",
      "outputs": [],
      "stateMutability": "nonpayable",
      "type": "function"
    },
    {
      "inputs": [
        {
          "internalType": "address",
          "name": "user",
          "type": "address"
        }
      ],
      "name": "voterRegisteration",
      "outputs": [],
      "stateMutability": "nonpayable",
      "type": "function"
    },
    {
      "inputs": [
        {
          "internalType": "uint256",
          "name": "_contestantId",
          "type": "uint256"
        }
      ],
      "name": "vote",
      "outputs": [],
      "stateMutability": "nonpayable",
      "type": "function"
    }
  ],
  "bytecode": "0x608060405234801561001057600080fd5b50336000806101000a81548173ffffffffffffffffffffffffffffffffffffffff021916908373ffffffffffffffffffffffffffffffffffffffff1602179055506000600460006101000a81548160ff0219169083600281111561007757610076610081565b5b02179055506100b0565b7f4e487b7100000000000000000000000000000000000000000000000000000000600052602160045260246000fd5b610ff4806100bf6000396000f3fe608060405234801561001057600080fd5b50600436106100885760003560e01c8063c19d93fb1161005b578063c19d93fb14610113578063dfd50f5214610131578063ec63d1c814610166578063ef3281861461018457610088565b80630121b93f1461008d578063268f1153146100a9578063698ceb5f146100c5578063a3ec138d146100e1575b600080fd5b6100a760048036038101906100a291906109d0565b6101a0565b005b6100c360048036038101906100be9190610a22565b610381565b005b6100df60048036038101906100da9190610aad565b610445565b005b6100fb60048036038101906100f69190610aad565b61053d565b60405161010a93929190610b04565b60405180910390f35b61011b610581565b6040516101289190610bb2565b60405180910390f35b61014b600480360381019061014691906109d0565b610594565b60405161015d96959493929190610c66565b60405180910390f35b61016e610768565b60405161017b9190610cdc565b60405180910390f35b61019e60048036038101906101999190610e2c565b61076e565b005b60018060028111156101b5576101b4610b3b565b5b600460009054906101000a900460ff1660028111156101d7576101d6610b3b565b5b146101e157600080fd5b600260003373ffffffffffffffffffffffffffffffffffffffff1673ffffffffffffffffffffffffffffffffffffffff16815260200190815260200160002060020160009054906101000a900460ff1661023a57600080fd5b600260003373ffffffffffffffffffffffffffffffffffffffff1673ffffffffffffffffffffffffffffffffffffffff16815260200190815260200160002060000160009054906101000a900460ff161561029457600080fd5b6000821180156102a657506003548211155b6102af57600080fd5b6001600083815260200190815260200160002060020160008154809291906102d690610f16565b91905055506001600260003373ffffffffffffffffffffffffffffffffffffffff1673ffffffffffffffffffffffffffffffffffffffff16815260200190815260200160002060000160006101000a81548160ff02191690831515021790555081600260003373ffffffffffffffffffffffffffffffffffffffff1673ffffffffffffffffffffffffffffffffffffffff168152602001908152602001600020600101819055505050565b60008054906101000a900473ffffffffffffffffffffffffffffffffffffffff1673ffffffffffffffffffffffffffffffffffffffff163373ffffffffffffffffffffffffffffffffffffffff16146103d957600080fd5b600460009054906101000a900460ff1660028111156103fb576103fa610b3b565b5b81600281111561040e5761040d610b3b565b5b1161041857600080fd5b80600460006101000a81548160ff0219169083600281111561043d5761043c610b3b565b5b021790555050565b60008054906101000a900473ffffffffffffffffffffffffffffffffffffffff1673ffffffffffffffffffffffffffffffffffffffff163373ffffffffffffffffffffffffffffffffffffffff161461049d57600080fd5b60008060028111156104b2576104b1610b3b565b5b600460009054906101000a900460ff1660028111156104d4576104d3610b3b565b5b146104de57600080fd5b6001600260008473ffffffffffffffffffffffffffffffffffffffff1673ffffffffffffffffffffffffffffffffffffffff16815260200190815260200160002060020160006101000a81548160ff0219169083151502179055505050565b60026020528060005260406000206000915090508060000160009054906101000a900460ff16908060010154908060020160009054906101000a900460ff16905083565b600460009054906101000a900460ff1681565b60016020528060005260406000206000915090508060000154908060010180546105bd90610f8d565b80601f01602080910402602001604051908101604052809291908181526020018280546105e990610f8d565b80156106365780601f1061060b57610100808354040283529160200191610636565b820191906000526020600020905b81548152906001019060200180831161061957829003601f168201915b50505050509080600201549080600301805461065190610f8d565b80601f016020809104026020016040519081016040528092919081815260200182805461067d90610f8d565b80156106ca5780601f1061069f576101008083540402835291602001916106ca565b820191906000526020600020905b8154815290600101906020018083116106ad57829003601f168201915b5050505050908060040154908060050180546106e590610f8d565b80601f016020809104026020016040519081016040528092919081815260200182805461071190610f8d565b801561075e5780601f106107335761010080835404028352916020019161075e565b820191906000526020600020905b81548152906001019060200180831161074157829003601f168201915b5050505050905086565b60035481565b60008054906101000a900473ffffffffffffffffffffffffffffffffffffffff1673ffffffffffffffffffffffffffffffffffffffff163373ffffffffffffffffffffffffffffffffffffffff16146107c657600080fd5b60008060028111156107db576107da610b3b565b5b600460009054906101000a900460ff1660028111156107fd576107fc610b3b565b5b1461080757600080fd5b6003600081548092919061081a90610f16565b91905055506040518060c001604052806003548152602001868152602001600081526020018581526020018481526020018381525060016000600354815260200190815260200160002060008201518160000155602082015181600101908051906020019061088a9291906108e3565b506040820151816002015560608201518160030190805190602001906108b19291906108e3565b506080820151816004015560a08201518160050190805190602001906108d89291906108e3565b509050505050505050565b8280546108ef90610f8d565b90600052602060002090601f0160209004810192826109115760008555610958565b82601f1061092a57805160ff1916838001178555610958565b82800160010185558215610958579182015b8281111561095757825182559160200191906001019061093c565b5b5090506109659190610969565b5090565b5b8082111561098257600081600090555060010161096a565b5090565b6000604051905090565b600080fd5b600080fd5b6000819050919050565b6109ad8161099a565b81146109b857600080fd5b50565b6000813590506109ca816109a4565b92915050565b6000602082840312156109e6576109e5610990565b5b60006109f4848285016109bb565b91505092915050565b60038110610a0a57600080fd5b50565b600081359050610a1c816109fd565b92915050565b600060208284031215610a3857610a37610990565b5b6000610a4684828501610a0d565b91505092915050565b600073ffffffffffffffffffffffffffffffffffffffff82169050919050565b6000610a7a82610a4f565b9050919050565b610a8a81610a6f565b8114610a9557600080fd5b50565b600081359050610aa781610a81565b92915050565b600060208284031215610ac357610ac2610990565b5b6000610ad184828501610a98565b91505092915050565b60008115159050919050565b610aef81610ada565b82525050565b610afe8161099a565b82525050565b6000606082019050610b196000830186610ae6565b610b266020830185610af5565b610b336040830184610ae6565b949350505050565b7f4e487b7100000000000000000000000000000000000000000000000000000000600052602160045260246000fd5b60038110610b7b57610b7a610b3b565b5b50565b6000819050610b8c82610b6a565b919050565b6000610b9c82610b7e565b9050919050565b610bac81610b91565b82525050565b6000602082019050610bc76000830184610ba3565b92915050565b600081519050919050565b600082825260208201905092915050565b60005b83811015610c07578082015181840152602081019050610bec565b83811115610c16576000848401525b50505050565b6000601f19601f8301169050919050565b6000610c3882610bcd565b610c428185610bd8565b9350610c52818560208601610be9565b610c5b81610c1c565b840191505092915050565b600060c082019050610c7b6000830189610af5565b8181036020830152610c8d8188610c2d565b9050610c9c6040830187610af5565b8181036060830152610cae8186610c2d565b9050610cbd6080830185610af5565b81810360a0830152610ccf8184610c2d565b9050979650505050505050565b6000602082019050610cf16000830184610af5565b92915050565b600080fd5b600080fd5b7f4e487b7100000000000000000000000000000000000000000000000000000000600052604160045260246000fd5b610d3982610c1c565b810181811067ffffffffffffffff82111715610d5857610d57610d01565b5b80604052505050565b6000610d6b610986565b9050610d778282610d30565b919050565b600067ffffffffffffffff821115610d9757610d96610d01565b5b610da082610c1c565b9050602081019050919050565b82818337600083830152505050565b6000610dcf610dca84610d7c565b610d61565b905082815260208101848484011115610deb57610dea610cfc565b5b610df6848285610dad565b509392505050565b600082601f830112610e1357610e12610cf7565b5b8135610e23848260208601610dbc565b91505092915050565b60008060008060808587031215610e4657610e45610990565b5b600085013567ffffffffffffffff811115610e6457610e63610995565b5b610e7087828801610dfe565b945050602085013567ffffffffffffffff811115610e9157610e90610995565b5b610e9d87828801610dfe565b9350506040610eae878288016109bb565b925050606085013567ffffffffffffffff811115610ecf57610ece610995565b5b610edb87828801610dfe565b91505092959194509250565b7f4e487b7100000000000000000000000000000000000000000000000000000000600052601160045260246000fd5b6000610f218261099a565b91507fffffffffffffffffffffffffffffffffffffffffffffffffffffffffffffffff8203610f5357610f52610ee7565b5b600182019050919050565b7f4e487b7100000000000000000000000000000000000000000000000000000000600052602260045260246000fd5b60006002820490506001821680610fa557607f821691505b602082108103610fb857610fb7610f5e565b5b5091905056fea264697066735822122036542c92653821c937521fcb0724b0a48217ef7fea336866fee800d3f354550464736f6c634300080d0033",
  "immutableReferences": {},
  "source": "// SPDX-License-Identifier: MIT\r\npragma solidity >=0.5.0;\r\n\r\ncontract Contest{\r\n\t\r\n\tstruct Contestant{\r\n\t\tuint id;\r\n\t\tstring name;\r\n\t\tuint voteCount;\r\n\t\tstring party;\r\n\t\tuint age;\r\n\t\tstring qualification;\r\n\t}\r\n\r\n\tstruct Voter{\r\n\t\tbool hasVoted;\r\n\t\tuint vote;\r\n\t\tbool isRegistered;\r\n\t}\r\n\r\n\taddress admin;\r\n\tmapping(uint => Contestant) public contestants; \r\n   // mapping(address => bool) public voters;\r\n    mapping(address => Voter) public voters;\r\n\tuint public contestantsCount;\r\n\t// uint public counter;\r\n\tenum PHASE{reg, voting , done}\r\n\tPHASE public state;\r\n\r\n\tmodifier onlyAdmin(){\r\n\t\trequire(msg.sender==admin);\r\n\t\t_;\r\n\t}\r\n\t\r\n\tmodifier validState(PHASE x){\r\n\t    require(state==x);\r\n\t    _;\r\n\t}\r\n\r\n\tconstructor(){\r\n\t\tadmin=msg.sender;\r\n        state=PHASE.reg;\r\n\t\t// counter = 0;\r\n\r\n\t}\r\n\r\n    function changeState(PHASE x) onlyAdmin public{\r\n\t\trequire(x > state);\r\n        state = x;\r\n    }\r\n\r\n\tfunction addContestant(string memory _name , string memory _party , uint _age , string memory _qualification) public onlyAdmin validState(PHASE.reg){\r\n\t\tcontestantsCount++;\r\n\t\tcontestants[contestantsCount]=Contestant(contestantsCount,_name,0,_party,_age,_qualification);\r\n\t}\r\n\r\n\tfunction voterRegisteration(address user) public onlyAdmin validState(PHASE.reg){\r\n\t\tvoters[user].isRegistered=true;\r\n\t}\r\n\r\n\tfunction vote(uint _contestantId) public validState(PHASE.voting){\r\n        \r\n\t\trequire(voters[msg.sender].isRegistered);\r\n\t\trequire(!voters[msg.sender].hasVoted);\r\n        require(_contestantId > 0 && _contestantId<=contestantsCount);\r\n\t\tcontestants[_contestantId].voteCount++;\r\n\t\tvoters[msg.sender].hasVoted=true;\r\n\t\tvoters[msg.sender].vote=_contestantId;\r\n\t}\r\n}",
  "sourcePath": "D:\\BlockChain Projects\\ONLINEVOTINGAPP\\contracts\\Contest.sol",
  "compiler": {
    "name": "solc",
    "version": "0.8.13+commit.abaa5c0e.Emscripten.clang"
  },
  "schemaVersion": "3.4.16",
  "updatedAt": "2024-03-19T11:38:36.889Z",
  "networkType": "ethereum",
  "devdoc": {
    "kind": "dev",
    "methods": {},
    "version": 1
  },
  "userdoc": {
    "kind": "user",
    "methods": {},
    "version": 1
  }
}